{
  "contractName": "FundRaise",
  "abi": [
    {
      "constant": false,
      "inputs": [],
      "name": "unpause",
      "outputs": [],
      "payable": false,
      "stateMutability": "nonpayable",
      "type": "function"
    },
    {
      "constant": false,
      "inputs": [],
      "name": "pause",
      "outputs": [],
      "payable": false,
      "stateMutability": "nonpayable",
      "type": "function"
    },
    {
      "constant": true,
      "inputs": [],
      "name": "owner",
      "outputs": [
        {
          "name": "",
          "type": "address"
        }
      ],
      "payable": false,
      "stateMutability": "view",
      "type": "function"
    },
    {
      "constant": false,
      "inputs": [],
      "name": "removeFunds",
      "outputs": [],
      "payable": false,
      "stateMutability": "nonpayable",
      "type": "function"
    },
    {
      "inputs": [],
      "payable": false,
      "stateMutability": "nonpayable",
      "type": "constructor"
    },
    {
      "payable": true,
      "stateMutability": "payable",
      "type": "fallback"
    }
  ],
  "bytecode": "0x6060604052341561000f57600080fd5b60008054600160a060020a033316600160a060020a031990911617905561022f8061003b6000396000f3006060604052361561005f5763ffffffff7c01000000000000000000000000000000000000000000000000000000006000350416633f4ba83a81146100895780638456cb591461009c5780638da5cb5b146100af578063feac51f5146100eb575b60005474010000000000000000000000000000000000000000900460ff161561008757600080fd5b005b341561009457600080fd5b6100876100fe565b34156100a757600080fd5b610087610143565b34156100ba57600080fd5b6100c261019f565b60405173ffffffffffffffffffffffffffffffffffffffff909116815260200160405180910390f35b34156100f657600080fd5b6100876101bb565b6000543373ffffffffffffffffffffffffffffffffffffffff90811691161461012357fe5b6000805474ff000000000000000000000000000000000000000019169055565b6000543373ffffffffffffffffffffffffffffffffffffffff90811691161461016857fe5b6000805474ff0000000000000000000000000000000000000000191674010000000000000000000000000000000000000000179055565b60005473ffffffffffffffffffffffffffffffffffffffff1681565b60005473ffffffffffffffffffffffffffffffffffffffff9081169030163180156108fc0290604051600060405180830381858888f19350505050151561020157600080fd5b5600a165627a7a7230582054b5907cdde1dbbe26aff78d413c6201108f2fcc14cc11fd2df45907e7ac498d0029",
  "source": "pragma solidity ^0.4.17;\n\ncontract FundRaise {\n    address public owner;\n    bool paused;\n\n    // modifiers\n    modifier onlyOwner() {\n        assert(owner == msg.sender);\n        _;\n    }\n\n    modifier whenNotPaused(){\n        require(!paused);\n        _;\n    }\n\n    // @dev constructor function. Sets contract owner\n    function FundRaise() {\n        owner = msg.sender;\n    }\n\n    // fallback function to accept ETH into contract.\n    function () whenNotPaused payable {\n    }\n\n    function pause() public onlyOwner {\n        paused = true;\n    }\n\n    function unpause() public onlyOwner {\n        paused = false;\n    }\n\n    function removeFunds() public {\n        owner.transfer(this.balance);\n    }\n}\n",
  "sourcePath": "/Users/gustavoguimaraes/DAPPS/smart-contract-test-example/contracts/FundRaise.sol",
  "schemaVersion": "1.0.0",
  "updatedAt": "2017-11-27T09:23:38.535Z"
}